:020000040800F2
:1000000000500020F92E0008492F0008492F000851
:1000100000000000000000000000000000000000E0
:10002000000000000000000000000000492F000850
:100030000000000000000000492F000853220008C3
:10004000492F0008492F000801250008492F000802
:10005000492F0008492D0008592D0008692D000876
:10006000492F0008492F0008492F0008492F000890
:10007000492F0008492F0008F92B0008993600087D
:10008000B1360008C9360008E1360008000000005B
:10009000F9360008492F000811370008492F0008D9
:1000A000492F0008492F0008492F0008C92B0008D4
:1000B000E12B00081D2C0008492F0008492F0008DB
:1000C0000023C25C0133002AFBD1581E7047000098
:1000D00002B4714649084900095C49008E4402BCDB
:1000E0007047C04603B47146490840004900095EA4
:1000F00049008E4403BC7047002243088B4274D3EE
:1001000003098B425FD3030A8B4244D3030B8B4218
:1001100028D3030C8B420DD3FF22090212BA030C21
:100120008B4202D31212090265D0030B8B4219D302
:1001300000E0090AC30B8B4201D3CB03C01A524122
:10014000830B8B4201D38B03C01A5241430B8B426A
:1001500001D34B03C01A5241030B8B4201D30B0353
:10016000C01A5241C30A8B4201D3CB02C01A52417A
:10017000830A8B4201D38B02C01A5241430A8B423D
:1001800001D34B02C01A5241030A8B4201D30B0226
:10019000C01A5241CDD2C3098B4201D3CB01C01A40
:1001A000524183098B4201D38B01C01A524143094A
:1001B0008B4201D34B01C01A524103098B4201D338
:1001C0000B01C01A5241C3088B4201D3CB00C01AA5
:1001D000524183088B4201D38B00C01A524143081D
:1001E0008B4201D34B00C01A5241411A00D2014642
:1001F000524110467047FFE701B5002000F006F8B5
:1002000002BDC0460029F7D076E770477047C04668
:10021000002B11D1002A0FD1002900D1002802D0D3
:100220000021C943081C07B4024802A140180290EB
:1002300003BDC046D9FFFFFF03B4684601B502986D
:1002400003F0B4FC019B9E4602B00CBC7047C04654
:100250001C2101231B04984201D3000C10391B0AF6
:10026000984201D3000A08391B09984201D30009BA
:10027000043902A2105C40187047C0460403020211
:1002800001010101000000000000000010B500297C
:1002900003D1FFF7DDFF203002E0081CFFF7D8FF95
:1002A00010BDC04610B5064C2378002B07D1054B76
:1002B000002B02D0044800E000BF0123237010BDD2
:1002C0008800002000000000EC3D0008044B10B541
:1002D000002B03D00349044800E000BF10BDC04616
:1002E000000000008C000020EC3D0008E12110B56A
:1002F0000A4C06222000490202F06AFF2000084949
:1003000003F0CAFA9621074C8901200000F034FB63
:100310002000054903F0C0FA10BDC0465803002074
:10032000043E0008A4000020143E000810B500237D
:100330000B220A21014800F055FA10BDA40000204C
:1003400010B5024800F02EF910BDC046A4000020F0
:1003500070B50D4C200000F031F80C4D002806D08F
:10036000200000F015F8C1B2280002F08FFE28002E
:1003700002F05BFE002806D0280002F075FFC1B233
:10038000200000F051F970BDA400002058030020A7
:10039000020003006A32693311781B78994209D050
:1003A0003F211378C0181378293001330B400078AF
:1003B0001370704701204042FBE7000003006933DF
:1003C0001B786A3002784033981A044B184004D5E1
:1003D000402301385B421843013070473F000080E2
:1003E00072B60200002369326A301370037062B67D
:1003F0007047030002006A3369321978127891421B
:1004000004D01B78C0182930007870470120404282
:10041000FBE710B50368984710BD012A03D0022AF4
:1004200003D0002070470160FBE70B680360F8E72A
:10043000F0B5244F0D003B6889B08B4240D0224C70
:10044000200002F040FF2000002D13D003F0A6F89A
:10045000032301266B430190039303990198FFF74F
:100460004BFE1A4B0290984207D9019B76005B081D
:100470000193F2E702F0EDFF21E03100200002F0ED
:10048000E4FF00222000029903F0C0F800222000BF
:10049000110003F0E1F80E4B200004930D4B04A96A
:1004A00007930D4B069303F061F9069B002B03D0D5
:1004B00004A9032208009847200002F0A5FF3D6030
:1004C00009B0F0BDCC01002028010020FEFF000093
:1004D000BD070008130400081B040008010010B544
:1004E00028310978C369026A890705D59A62012112
:1004F000408A02F02BFD10BD9A61F8E7030010B5A9
:1005000028331978008A8907C90F023102F01EFDCD
:1005100010BD0000030070B528331B7804000E00E6
:100520005B070FD50B4D00290DD02B68984209D0E1
:10053000FFF7E4FF0122084B52421A60074B0332D7
:100540001A602C6070BD2868A042FBD1FFF7C6FF7F
:100550002E60F7E7C8010020000000201C010020E9
:1005600070B50D4D04002B680020A34213D10B4B36
:1005700019680029FCD1230028331B785B0702D5BA
:100580002000FFF7C7FF0021054B200029601960FC
:10059000FFF74EFF012070BD240100201401002050
:1005A000C801002010B50400034B08330360FFF7B7
:1005B000D7FF200010BDC046343E000810B504002F
:1005C000FFF7F0FF2000702103F0BEF9200010BDFE
:1005D00070B5104E040030680025A04218D00E4AB5
:1005E0001368002BFCD10125FFF7BAFF01220B4B4A
:1005F00052421D600A4B2000616A1A60FFF718FF23
:10060000230028331B7834605B0701D4054B1C6042
:10061000280070BD24010020140100201C010020CE
:1006200000000020C8010020F8B5050008230400E0
:1006300028352A78144E13432B703368002BFCD1D5
:100640004B008021890019432A78104B19609207CA
:1006500001D5C9431960002703220D4B20001F60FC
:100660000C4B616A1A60FFF7E3FE2B785B0703D53A
:1006700039002000FFF74EFF08222B78012093431A
:100680002B703460F8BDC04614010020D401002056
:100690001801002020010020184A70B511680300DD
:1006A00001391160002910DC154C2168481C2060BC
:1006B00009290DDC1348DC6901681B6ACD0705D5E3
:1006C000A361032349080160136070BDA362F8E7CA
:1006D000012111601A0028321278140703D5002274
:1006E000094B1A60F1E71928EFDD5207F7D5074AE1
:1006F00010689842F3D1FFF70DFFF0E720010020CA
:1007000018010020D4010020140100202401002041
:10071000274AF0B51368013B1360002B36DC4369B0
:10072000816906001B6928360B405B1A59424B4110
:10073000204C37782168BD07B446DBB2ED0F4E1C64
:100740000AD19D4206D10023053111601A4A236067
:1007500013601BE00123FBE707291CDD9D4211D03C
:1007600001003F2569310B7801332B4005006A35C4
:100770002D789D420BD00D7840190F4D29302D68F2
:1007800005700B7001231360023B2360F0BD012351
:1007900061463B43F5E7084E306840089D4204D16E
:1007A0000131032330602160D2E780231843F7E74B
:1007B0001C01002000000020D0010020074B10B5D4
:1007C0001A68002A02D01868FFF7A2FF044B1A68C3
:1007D000002A02D01868FFF75FFF10BDC801002093
:1007E00014010020F8B50C00FA2105000020890052
:1007F000A9605B496860083129602C826A82332CC9
:1008000023D858496600895F0906090F052902D8CF
:100810005548890008580F216861332C20D8514869
:100820006600805B0140514889000958A961332A5C
:1008300021D84C495600715E00260906090F05298A
:1008400029D8494E89008E5925E0210035398EB2CC
:100850000B2EE0D8464E89008959424E4900D2E716
:100860002000353886B20B2EDDD8414E80008059ED
:100870003C4E4000D5E7110035398FB200260B2FD2
:1008800009D83B4F8900C959364F4900C95F09064D
:10089000090F0529D5D90F21EE61332A25D8314E0C
:1008A0005700F65B3140890041585B002962A11A6C
:1008B00048424141890000260B4329000F206E6207
:1008C00028310F78034087433B430B702B0069337B
:1008D0001E705E70EE66332C12D9332A12D90121B4
:1008E0002448494201F014FE1CE01600353EB7B220
:1008F0000B2FD8D81E4FB600F6591A4F7600D0E706
:10090000332A11D8174B5200D05E0006000F01F0B9
:100910004BFC332C15D8134B6400E05E0006000F2F
:1009200001F042FC2800F8BD353A93B20B2BEED80B
:100930000F4B9200D3580B4A5B009B5E1B0918407B
:10094000E5E7353CA3B20F200B2BE9D8084BA400F8
:10095000E358044A5B009B5E1B091840E0E7C04671
:10096000343E000804430008080000205C3F0008F3
:10097000D4420008173E0008030010B52833416236
:100980001B7804005B0708D4FFF7A8FD2000FFF7E1
:10099000B5FD2000FFF71CFE10BDFFF79FFDFBE734
:1009A00010B50249024802F0A7FD10BD0014004036
:1009B0002801002010B5024802F080FD10BDC0469D
:1009C0002801002003000A4910B50868C318EFF396
:1009D0000882934205D90C220120064B40421A603E
:1009E00010BD054A054C121B9342F4D20B60F7E789
:1009F00004000020D4040020005000200004000067
:100A0000FEE7000016220120014B40421A607047A9
:100A1000D40400200120704770470000FA210A4BDF
:100A200070B5890005001868FFF766FB00F076F8DE
:100A300004000120002C05D102382200290000F01A
:100A400027F8200070BDC046200000200223084A7D
:100A500010B5116800200B431360FFF7DFFF041E81
:100A600003D1FFF7D9FF200010BD0124FBE7C046EA
:100A700000200240024A1368013313607047C046E9
:100A8000D0040020014B18687047C046D0040020F5
:100A900030B5FF2503242A000440E400A240890168
:100AA0002940D243A140C3B200280ADBC0240B4B2B
:100AB00080088000C018A40003591A401143015156
:100AC00030BD0F200340083B05489B089B001B18C6
:100AD000D86902401143D961F2E7C04600E100E065
:100AE00000ED00E0002805DB1F2318401E3B83407B
:100AF000014A13607047C04600E100E0002809DBAE
:100B00001F2318401E3B8340034AD367BFF34F8F18
:100B1000BFF36F8F7047C04604E100E08022431EA0
:100B20005204012093420DD2C021074A0748536066
:100B3000036A09061B021B0A0B43036200200723FA
:100B4000906013607047C04610E000E000ED00E0E8
:100B5000002807DB1F23C02218401E3B83400249A8
:100B600052008B507047C04600E100E0704710B55E
:100B7000FFF7FCFF10BD10B504000120002C08D0C9
:100B800002232000237102F05DF8002020616071D3
:100B9000207110BD012230B515008D400468236816
:100BA000AB4323600271002030BD70B5841DE37F2C
:100BB000022B04D00423C363033B180070BD0E2135
:100BC0000368456C1A688A431A60012219689143C8
:100BD00019601C232B4015009D40016C431D4D6086
:100BE000E2770024DC77826B1300A242E5D09047C5
:100BF0002300E2E7044B10B55A69104202D0586155
:100C000002F08CF810BDC046000401408023034A66
:100C10005B0011680B4313607047C04600700040D2
:100C20000C22194B10B5D9680A40082A29D00C2A81
:100C300009D0042A1DD11868144BC006C0171840EB
:100C4000134BC01810BD13488A02120F825C0902B0
:100C5000D868890F0131C00304D50F485043FFF70E
:100C60004BFAEFE71B68DB0601D50C48F6E70848AE
:100C7000F4E780205B6800021B045B0F013398409F
:100C8000E0E70548DEE7C0460010024000E548FF07
:100C90000024F400B43F000800127A0000093D006F
:100CA000F0B5050087B0002858D00C23B74C026877
:100CB000E668E7681E4080235B021F40D20741D4EC
:100CC0002B689B0700D58AE02B68DB0628D5002E11
:100CD00000D0E2E023689B0502D5EB69002B3DD0F4
:100CE0006268AB496B6A0A401A43626061682A6AAB
:100CF0000902090A12060A43626080225B0B013373
:100D000012029A401300E16800200A06A149120F5E
:100D10008A5CD340A04A1360FFF780FE002834D1DC
:100D20002B681B0700D5EFE02B685B0700D511E1AE
:100D30002B689B0600D596E1AB6A002B00D0C5E17D
:100D4000002022E0082E03D00C2E09D1002F07D05E
:100D500023689B03B4D56B68002BB1D1012014E04C
:100D60006A689A4213D1226813432360FFF78AFE10
:100D700001908022236892021342A1D1FFF782FEE4
:100D8000019BC01A6428F4D9032007B0F0BDA0214C
:100D9000C9028A4205D180222168D2020A43226018
:100DA000E1E721687D480140216021680B400593FF
:100DB000059B7B4923680B402360002AD6D1FFF7AF
:100DC00061FE0190802223689202134200D177E7EE
:100DD000FFF758FE019BC01A6428F3D9D4E72022FC
:100DE000EB68134203D02168934311432160042E22
:100DF00003D00C2E23D1002F21D12268520701D518
:100E0000002BABD061682A696648120201400A4390
:100E10000921626022688A4313432360FFF700FFC1
:100E2000E3685C4A1B061B0FD35CD8405A4B186022
:100E30000020FFF7F3FD002800D145E7A5E7002BD0
:100E400019D0092122688A4313432360FFF71AFE51
:100E5000070004222368134207D062682B695149B6
:100E60001B020A40134363602EE7FFF70BFEC01B13
:100E70000228EED988E70122236893432360FFF715
:100E800001FE070004222368134200D11CE7FFF78C
:100E9000F9FDC01B0228F5D976E7EB69002B20D0BD
:100EA000802322685B0013432360FFF7EBFD0700FC
:100EB00080222368920013420DD06368344A1340A5
:100EC0006A6A1343636062682B6A12021B06120A85
:100ED0001343636024E7FFF7D5FDC01B0228E7D961
:100EE00052E72368304A13402360FFF7CBFD070029
:100EF000802223689200134200D111E7FFF7C2FD60
:100F0000C01B0228F4D93FE76A690123002A10D0E8
:100F1000226D13432365FFF7B5FD07000222236D01
:100F2000134200D000E7FFF7ADFDC01B0228F5D942
:100F30002AE7226D9A432265FFF7A4FD07000222EB
:100F4000236D134200D1EFE6FFF79CFDC01B022882
:100F5000F5D919E780230021A26B5B0501911A42A4
:100F600004D1A26B1343A3630123019380220F4F8B
:100F700052003B6813421BD08022AB685200934260
:100F80002CD1226D134323654DE0C0460010024072
:100F9000FF1FFFFF9C3F000820000020FFFFFEFF17
:100FA000FFFFFBFFFFE0FFFFFFFEFFFF00700040C1
:100FB00080223B68520013433B60FFF763FD8023B0
:100FC0005B00029003933B68039A1342D4D1FFF76E
:100FD00059FD029BC01A6428F5D9D5E6002B16D11D
:100FE000236D6B4A13402365236D6A4A13402365C2
:100FF000FFF748FD07008022236D920013421AD0AC
:10100000FFF740FD644BC01B9842F4D9BCE6A02119
:10101000C9008B4218D18023216DDB000B4323656F
:10102000236D1A432265FFF72DFD07008022236DF3
:101030009200134210D0019B012B00D078E6A36BE5
:10104000564A1340A36373E6236D514A1340236548
:10105000236D504A134096E7FFF714FD4E4BC01B1B
:101060009842E3D990E6A96901234D4A002918D096
:10107000A1681943A160616B0B4363638023116A0C
:101080009B010B431362FFF7FDFC07000222A368DC
:10109000134200D050E6FFF7F5FCC01B0228F5D93B
:1010A00072E6A1689943A160136A3E490B4013623E
:1010B000FFF7E8FC07000222A368134200D13BE6D9
:1010C000FFF7E0FCC01B0228F5D95DE60C2E43D0EB
:1010D000354A022B2ED12368802713402360FFF767
:1010E000D1FC0600BF0423683B421DD1296BEB6A8B
:1010F000E2680B432D4980260A4013436A6BB6040D
:101100001343E360802322685B0413432360FFF7EB
:10111000B9FC05002368334200D011E6FFF7B2FCAA
:10112000401B0228F6D92FE6FFF7ACFC801B0228F3
:10113000D9D929E62368802613402360FFF7A2FC53
:101140000500B6042368334200D1F9E5FFF79AFCA5
:10115000401B0228F6D917E61800012B00D114E62F
:101160008022E368E96A52021A408A4200D0F5E51B
:10117000F022296B92031A408A4200D0EEE5C02289
:10118000120413406A6B934200D1D9E5E6E5C046EC
:10119000FFFEFFFFFFFBFFFF88130000FFFFFFEFD5
:1011A00000000140FFDFFFFFFFFFFFFEFFFF02FF28
:1011B000F7B5041E019101D10120FEBD0122514D60
:1011C00001992B6813408B4227D3226893072FD4B1
:1011D000D30735D401232A6801991A408A4200D9DD
:1011E00081E02268484D530700D584E0130706D5F7
:1011F000EA6823694549DB000A401343EB60FFF7C7
:101200000FFDEB68424A1B061B0FD35CD840414BD5
:1012100018600020FFF702FCCFE72B680199934389
:101220000B432B602B681340019A9342C4D1CCE747
:10123000F0203549CB688343A0680343CB60C7E700
:10124000314E62683368022A19D19B03B4D5032159
:10125000F3688B431343F360FFF714FC63680700E4
:10126000022B19D10C22F3681340082BB2D0FFF7E0
:1012700009FC294BC01B9842F4D903209DE7032A9F
:1012800002D19B01E3D497E7012A02D15B07DED4A8
:1012900092E79B05DBD48FE7032B0BD10C22F3687D
:1012A0001340934296D0FFF7EDFB1B4BC01B9842B7
:1012B000F4D9E2E7012B10D00C22F368134289D055
:1012C000FFF7E0FB144BC01B9842F5D9D5E7FFF7B9
:1012D000D9FB114BC01B9842CFD80C22F3681340A6
:1012E000042BF4D176E72A689A432A602A681A42C6
:1012F00000D176E760E7EB6808490B40E1680B43F3
:10130000EB6073E70020024000100240FFC7FFFFC0
:101310009C3F00082000002088130000FFF8FFFF1A
:10132000044B054ADB685B055B0FD35C034A10681E
:10133000D840704700100240AC3F00082000002059
:10134000044B054ADB689B045B0FD35C034A1068BF
:10135000D840704700100240AC3F00082000002039
:101360000F2330B50324E0250B4A0360D368ED005A
:1013700023404360D368ED3423408360D4682C401D
:10138000C460D3680122DB082B400361034B1B6858
:1013900013400B6030BDC0460010024000200240E8
:1013A0008223F7B502681B0105001A4248D080234A
:1013B0000021654C5B05A26B00911A4204D1A26B1F
:1013C0001343A363012300938027604E7F0033689B
:1013D0003B4277D06B68C0211E00C0222068890381
:1013E00008400E409202864203D1A8680140B142F3
:1013F00007D019001140914203D1216801208903CF
:1014000071D4216D08001040114200D06CE0696871
:10141000C0230A009B021A409A4207D123684C4815
:101420000340C020800301400B432360236D1A4317
:10143000009B2265012B03D1A36B464A1340A36393
:101440002B68DA0706D503203F49CA6C8243E86857
:101450000243CA649A0706D50C203B49CA6C8243F2
:1014600028690243CA645A0706D537493A48CA6C04
:10147000024068690243CA641A0706D532493748F0
:10148000CA6C0240A8690243CA64DA0506D52E492F
:101490003348CA6C0240E8690243CA645A0606D55A
:1014A00029493048CA6C0240686A0243CA64002075
:1014B0001B0618D5244A2C49D36C0B40296A0B43D0
:1014C000D36410E033683B433360FFF7DBFA0190ED
:1014D00033683B4200D07DE7FFF7D4FA019BC01A86
:1014E0006428F5D90320FEBD29681340984201D035
:1014F0008B0609D4C023AA689B021340834200D103
:1015000085E70B0500D482E78022216D206D120350
:1015100002432265226D124B14480B4002402265A3
:101520002365CB0500D472E7FFF7ACFA80270600ED
:10153000BF00236D3B4200D069E7FFF7A3FA0C4BD5
:10154000801B9842F5D9CDE70010024000700040A2
:10155000FFFFCFFFFFFFFFEFFFF3FFFFFFCFFFFF17
:10156000FFFFFCFFFFFFFFFBFFFFF3FFFFFFF7FFA6
:1015700088130000036810B59A680400D2040AD5E5
:10158000DB68DB0507D500F0ADFF21680E4BCA68AC
:10159000D2B21343CB6023689A6892040BD5DB6800
:1015A0009B0508D5200000F015F82168074BCA6894
:1015B000D2B21343CB608022054B92025A610123C1
:1015C0000234E37710BDC0467FFEFFFF7FFDFFFFC3
:1015D000000401407047000080220368D205904259
:1015E00008D0154A904205D0144A904202D0144ABD
:1015F000904214D1702293434A6813438022D2054B
:10160000904208D00C4A904205D00C4A904202D039
:101610000B4A904203D10B4A1340CA6813438022FD
:1016200093430A69134303608B68C3620B68836248
:10163000012343617047C046000400400008014098
:1016400000140140FFFCFFFF1F2310B501241940C7
:101650008C408A40036AA3430362036A1A4302620E
:1016600010BD70B504000120002C14D025003935C0
:101670002B78DAB2002B05D12300383320001A7002
:1016800001F024F802232B702068211DFFF7A4FF2E
:10169000012300202B7070BD0100022339310B7033
:1016A000036807209A680240062A03D001221868BE
:1016B00002431A60012300200B70704710B504002C
:1016C00001220068FFF7C0FF072123689A680A40DB
:1016D000062A03D0012219680A431A60002010BDAF
:1016E00010B5FFF7EBFF10BD10B5FFF7E7FF10BD1A
:1016F000704770470222036810B51969040011424F
:101700000DD0D96811420AD0053A1A610432027626
:101710009B699B075ED002F093F800232376042296
:1017200023681969114210D0D96811420DD0093AC5
:101730001A61073222769A69C0239B0020001A4260
:101740004ED002F07DF80023237608222368196921
:1017500011420ED0D96811420BD0113A1A610D32E4
:101760002276DB6920009B0740D002F069F8002355
:101770002376102223681969114210D0D9681142CA
:101780000DD0213A1A6119322276DA69C0239B0002
:1017900020001A4230D002F053F8002323760122B1
:1017A00023681969114207D0D968114204D0033A5D
:1017B00020001A6102F012F84022236819691142D0
:1017C00007D0D968114204D0813A20001A61FFF78E
:1017D00090FF10BD02F030F82000FFF789FF9CE772
:1017E00002F02AF82000FFF783FFACE702F024F8AC
:1017F0002000FFF77DFFBAE702F01EF82000FFF798
:1018000077FFCAE7036807491A680A401A609A68AE
:101810002331FF318A439A602023836700230366C4
:101820007047C046DFFEFFFF436F10B5212B0DD17F
:10183000010052310A880368002A08D180211A6801
:101840008A431A60402219680A431A6010BDC26CAC
:10185000147801329C62C2640B88013B9BB20B80FE
:10186000F4E7436F10B5212B0DD1010052310A88E6
:101870000368002A08D180211A688A431A6040222E
:1018800019680A431A6010BDC46C22880234D2055C
:10189000D20D9A62C4640B88013B9BB20B80F2E7C5
:1018A0007047000070B5446F03000220202C30D137
:1018B000013800292DD0002A2BD080209D684001BE
:1018C000854206D11869002803D11F3C200021421F
:1018D0001FD11C00703426780220012E19D0D96443
:1018E000190050310A804A8000228021DA672132B3
:1018F0005A674901074A8D4203D11969002900D16D
:10190000054A00205A6620701A68802311680B432C
:10191000136070BD291800086318000870B5846F43
:1019200003000220202C44D10138002941D0002A94
:101930003FD080209C684001844206D1186900286D
:1019400003D101252800294233D11D0070352E789E
:101950000220012E2DD00138287059651900583108
:101960000A804A80802000211A00196640015C32FA
:10197000844221D1196900291CD117491180002204
:101980000121DA6722329A671A6890680143802041
:10199000916040011149844203D11869002800D1A7
:1019A0000F49002019669023287011685B000B43D3
:1019B000136070BDFF21E1E7002C04D119690029F3
:1019C000F8D07F21DAE7802040058442D6D119691A
:1019D0000029F6D03F21D1E7FF010000E5190008FA
:1019E000451A0008826F10B50368222A23D102002D
:1019F0005C325B6A12881340426D13700200436DC3
:101A00005A32013343651388013B9BB2138013881C
:101A100099B2002B0ED10368094C1A6822401A6053
:101A20009A682334FF34A2439A60202301668367B7
:101A300001F08CF810BD082299690A439A61F9E710
:101A4000DFFEFFFF826F10B50368222A21D1040058
:101A50005C34596A2488426D2140118001000232B1
:101A60005A3142650A88013A92B20A800A8891B2D4
:101A7000002A0DD11A68094C22401A609A68233452
:101A8000FF34A2439A6020230166836701F05EF869
:101A900010BD082299690A439A61F9E7DFFEFFFF4A
:101AA000F8B503680400DA6919689F6810070BD15C
:101AB0002020024200D16BE0014200D168E0236E99
:101AC0002000002B5AD15AE0902501203E006D00E5
:101AD00006400D4035435BD0024205D0CD0503D50D
:101AE0001862E56F2843E0670220024206D0002E0C
:101AF00004D01862E56F00182843E0670420024212
:101B000006D0002E04D01862E56F02382843E06743
:101B10000820024207D020250D40354303D018622B
:101B2000E36F1843E067E36F002B28D020231A42AD
:101B300006D0194204D0236E002B01D02000984714
:101B40002268E36F40269568082235401340200044
:101B50001D4319D0FFF756FE23689A6832420FD012
:101B60009A68E06EB2439A60002809D0194B8363EB
:101B7000FFF71BF8002802D0E06E836B9847F8BD92
:101B8000200000F0FFFFFAE700F0FCFFE567F6E752
:101B900080204003024206D07D0204D51862200056
:101BA00001F048F8EBE78020024203D0014201D067
:101BB000636E85E740200242E1D00142DFD01A681F
:101BC00082431A602023636700232000636600F0CD
:101BD000C4FFD4E7D91B0008806A0023020010B5B7
:101BE0005A321380083A138000F0CCFF10BD10B5B4
:101BF00004007034227803000220012A0ED024222F
:101C00005A671A680A301168814311600821106808
:101C100001431160002020225A67207010BD10B5CA
:101C200004007034227803000220012A0ED02422FE
:101C30005A671A680A3011688143116004211068DC
:101C400001431160002020225A67207010BD436FAD
:101C5000806F184370470000F8B504002569A2683A
:101C600003682A436569C1692A431868834D0A439A
:101C7000284002431A605A688148824D0240E06859
:101C800002435A60A069AB4201D0226A10439A68AD
:101C90007D4E324002439A607C4A93420FD1032228
:101CA0007B4BDB6C1340013B7A4A022B0FD980231C
:101CB0001B02994200D0B6E0FFF742FBD0E0764A23
:101CC000934218D10C22724BDB6C1340734AD05CE8
:101CD00080231B02994200D089E0082800D983E0C4
:101CE000FEF700FABC00EAFF5C0082007A00820086
:101CF000820082007D006A4A934200D1AAE0694ACC
:101D0000934200D1A6E0AB4200D0AFE0C0218020DA
:101D10005F4A0901D36C00010B40834217D007D8FA
:101D2000002B0AD08022D200934234D001200AE056
:101D30008B42FBD180231B0213E0FFF7F1FA030073
:101D4000002083420DD1002323666366F8BD102076
:101D50001368554A03405842434154485B4203408C
:101D60009B180321626851439942DFD811039942BD
:101D7000DCD300275608190E1802801979413B0060
:101D8000FEF746FA4A4BC2184A4B9A42CED823680D
:101D9000D8603800D7E7FEF743FFD0E73C4B6168D7
:101DA0001A68102348081A4214D0434BC018FEF793
:101DB000A3F983B200201A004049103A8A42B5D8EC
:101DC0000F22190091430A001B0721685B0F134380
:101DD000CB60B8E73A4BE9E7FEF722FF40E06368E3
:101DE000580880235B023EE001200023E3E7082837
:101DF00040D8FEF76DF905181B3F273F3F3F2A00EB
:101E0000FFF78EFA63685B0861681818FEF774F9CB
:101E100083B200201A002949103A8A4200D985E786
:101E20002268D3608FE7FFF78BFAEBE7184B616806
:101E30001A68102348081A4202D01B4BC018E5E765
:101E4000204BFBE7FEF7ECFEDCE7636858088023D5
:101E50001B02D9E780231B029942D1D1FFF760FA18
:101E6000636840005B086168C018A0E780231B021C
:101E70009942B9D001200023CCE7C046F369FFEFB7
:101E8000FFCFFFFF00480040FFF4FFFF0038014094
:101E900000100240643E000800440040673E000815
:101EA000004C00400050004000093D00001BB700FE
:101EB00000FDFFFFFFFC0F0000127A00EFFF0000A3
:101EC0000048E8010024F400436A30B5DA0706D57B
:101ED0000168284C4A682240846A22434A609A0773
:101EE00006D50168244C4A682240C46A22434A60ED
:101EF0005A0706D50168214C4A682240046B2243E8
:101F00004A601A0706D501681D4C4A682240446B96
:101F100022434A60DA0606D501681A4C8A682240D4
:101F2000846B22438A609A0606D50168164C8A683B
:101F30002240C46B22438A605A0610D50168134DB3
:101F40004A68046C2A4022434A6080225203944229
:101F500005D14A680E4C2240446C22434A601B065D
:101F600006D502680B4953680B40816C0B435360E4
:101F700030BDC046FFFFFDFFFFFFFEFFFFFFFBFF81
:101F8000FF7FFFFFFFEFFFFFFFDFFFFFFFFFEFFF21
:101F9000FFFF9FFFFFFFF7FFF8B504000D001700DC
:101FA0001E002268D3692B405B1B59424B41BB4248
:101FB00001D000201BE0069B0133F3D0FEF762FD49
:101FC000069B801B984201D8002BEAD12368084960
:101FD0001A6803200A401A609A68A331FF318A43C5
:101FE0009A6020236367A367002370342370F8BDD1
:101FF0005FFEFFFF73B500260400C667FEF742FDD3
:10200000236805001B681B0715D423681B685B0742
:102010000AD580210E4B0022009320002B00C9031B
:10202000FFF7BAFF002811D1202300206367A367C0
:10203000703420700BE08021054B3200009389033F
:1020400003002000FFF7A8FF0028DED0032076BDA4
:10205000FFFFFF0110B5041E01D1012010BD436F29
:10206000002B04D1020070321370FFF719FC2423F7
:10207000012122686367136820008B431360FFF718
:10208000EBFD0128E9D0636A002B02D02000FFF7A6
:102090001BFF236807495A6820000A402A215A601A
:1020A0009A688A439A60012219680A431A60FFF706
:1020B000A1FFD3E7FFB7FFFF10B5041E01D1012038
:1020C00010BD436F002B04D1020070321370FFF774
:1020D000E7FB2423012122686367136820008B43F8
:1020E0001360FFF7B9FD0128E9D0636A002B02D025
:1020F0002000FFF7E9FE236809495A6820000A40DA
:1021000022215A609A688A439A60082299680A4391
:102110009A60012219680A431A60FFF76BFFCFE744
:10212000FFB7FFFF0200703211780300022001297F
:1021300007D01968802388681B04034300208B6044
:1021400010707047020070321178030002200129DC
:1021500006D0196803488B68034000208B6010701C
:102160007047C046FFFF7FFF0100022310B57031AA
:102170000C7802001800012C05D012681068034387
:1021800000201360087010BD020010B502247032E8
:10219000117803002000012905D0002019680B6880
:1021A000A3430B60107010BD7FB5002305280FD826
:1021B0001F4BDA6AFDF78CFF030F18212A33012128
:1021C0000A43DA62DB6A0B400093009BA023DB0525
:1021D000180007B000BD02210A43DA62DB6A0B4037
:1021E0000193019B134BF3E704210A43DA62DB6A94
:1021F0000B400293029B104BEAE708210A43DA6284
:10220000DB6A0B400393039B0C4BE1E710210A436D
:10221000DA62DB6A0B400493049B094BD8E7802108
:102220000A43DA62DB6A0B400593059B054BCFE757
:10223000001002400004005000080050000C005044
:1022400000100050001C005010B5FEF71BFC10BD24
:10225000704710B5FEF70EFCFEF789FCFFF7F8FF9C
:1022600010BD000030B58FB038220500002168464F
:1022700001F0C7FB8023224C5B05A26B1A4202D1FE
:10228000A26B1343A363FEF7C1FC032D0BD82800F8
:10229000FDF71EFF0217212D236D9B0703D4082392
:1022A0000093073B0593009B002B08D06846FEF780
:1022B000F7FC002803D09E21124800F029F90FB046
:1022C00030BD23685B07EED402230093013B0393E8
:1022D0000F330493E7E7236D9B05E4D4236D0A4A8B
:1022E0001340236504230093FC330293DBE7236848
:1022F0009B03D8D40123009380235B020193D2E790
:1023000000100240743E0008FFE7FFFF10B5FEF723
:102310009DFB00F0A5FD10BD431C04D100207047BB
:10232000834205D00C3100228B5E5A1CF8D1F5E7B0
:102330000120F4E70F23F0B5072585B082B2040928
:102340001C4003920340344A9B009F5802910D4069
:10235000431C03D14821314800F0DAF83E00200048
:10236000FFF722FF03237E437343D94382680400AF
:10237000134301918360032D20D82800FDF7A8FEA8
:1023800012120212029B5904039B490E1B070BD524
:102390000F203B0A5B435B4358434B43626A8243D3
:1023A000134363622B000EE032000F207243504350
:1023B0005143236A83430B432362F3E78D2117487C
:1023C00000F0A6F80023734322680199013D0A40FA
:1023D00013432360012D05D8029B1B070DD56368AD
:1023E0003B436360029B9906890F012908D00229AB
:1023F0000DD0E668019B1E4006E06368BB43F0E732
:10240000E368019A13401E43E66005B0F0BDE3683F
:10241000019A76001340F6E75C3F0008E63E0008AC
:1024200010B5431C07D110BD834203D18968FFF763
:1024300081FFF8E70C3100228B5E5A1CF4D1B921E0
:10244000014800F065F8EEE7E63E000800228B5EEA
:102450005A1C01D1002002E0834201D14868704734
:102460000C31F3E7030010B500205A1C02D018000D
:10247000FFF7ECFF10BD4B68002B02D1012040425A
:1024800003E0834202D10023C85E70470C31F2E7BB
:1024900010B5002802D0FFF7EEFF10BD012040422A
:1024A000FBE703000022885E421C02D0984201D163
:1024B000886870470C31F5E7030010B5421C02D064
:1024C000FFF7EFFF0300180010BD030008008B4268
:1024D00004D0002B02D0002901D118007047002041
:1024E000FCE70000044B10B51B68002B02D0034A28
:1024F0001068984710BDC046D80100200002002097
:1025000010B50248FFF736F810BDC046DC010020C8
:10251000FEE700008022104B520019680A431A603F
:10252000DA680E490A40DA601A680D490A4001214A
:102530001A609A688A439A601A680A490A401A60BF
:10254000DA6809490A40DA6000221A618022074BE2
:1025500012059A607047C046001002400C40FF8888
:10256000F6FFF6FEFFFFFBFFFFFF02FF00ED00E0BE
:102570000438704780220368D20593420BD10122B0
:102580001549886B02438A63144A93421ED1124A4A
:102590002023516B0EE0124A93420ED0114A93420F
:1025A0000FD0114A934212D0104A9342ECD1042327
:1025B000094A516B0B43536308E007490222886BB9
:1025C000E0E71023044A916B0B4393637047024A80
:1025D0002023916BF8E7C046001002400014014030
:1025E00000040040001000400014004000080140BA
:1025F00080220368D20593420BD1012015498A6BD2
:1026000082438A63144A93421ED1124A2021536B9B
:102610000EE0124A93420ED0114A93420FD0114A53
:10262000934212D0104A9342ECD10421094A536BD1
:102630008B43536308E0074902208A6BE0E71021CF
:10264000044A936B8B4393637047024A2021936B38
:10265000F8E7C046001002400014014000040040AA
:10266000001000400014004000080140010010B5B7
:10267000431C14D00F4B1220994212D012D80E4B8B
:10268000023899420DD00D4B0130994209D0802378
:102690000238DB05994204D00948FFF739FF0E20C4
:1026A000404210BD074B14209942FAD0064B02302D
:1026B000F0E7C04600140040000400400010004055
:1026C000BD3F0008000801400014014070B504003F
:1026D000FFF750FF2068FFF7C9FF226CE16BFEF7A0
:1026E000D7F92068FFF7C2FFFEF7FCF92068FFF773
:1026F000BDFF06002068FFF7B9FF86420BD02068B7
:10270000FFF7B4FF226CE16BFEF7C2F92068FFF718
:10271000ADFFFEF7E7F970BD010010B500204B1CBE
:102720000FD00E4B023099420BD014D80C4B01380D
:10273000994206D006D880220A4BD2050B4093421C
:1027400004D110BD0120084B9942FAD00748FFF789
:10275000DFFE0020F5E70220054BF5E70008014009
:1027600000100040FFFBFFFF00140040D53F0008B1
:1027700000140140F0B585B00393030004008C33CE
:10278000019102920020185E7D492700FFF76AFE42
:102790008E3706007B490023F85EFFF763FE0500D5
:1027A000002E00D1D9E00022BB5E013302D0002808
:1027B00000D1D2E029003000FFF787FE206000281A
:1027C00000D1CAE0704B714F98426AD18022704BA1
:1027D000D201596A6F4811435962596A01405962DE
:1027E000596B0A435A631B22230090331A8023003B
:1027F0008C330020185E6249FFF712FE002D06D0D0
:1028000023008E330020185E5E49FFF709FE230087
:1028100091331B78604A9B00261D9E50019B2268C5
:10282000A360029B6260E3600A9B2361039B636178
:102830000C23A3610023E3612362A3626362BA42B3
:1028400028D19623019A30009B019A4272D8FFF753
:1028500069FC3000FFF788FC3000FFF7FBFB002825
:102860007BD09623019A4A4C9B019A4268D92368EF
:102870004A4F5B0700D572E0E36C30003B40E364F5
:10288000FFF7E8FB002868D0E36C1F408023DB00E3
:102890003B43E3643000002D00D06DE0FFF70CFCFB
:1028A0005BE03F4B98420FD18022394B9202996AEC
:1028B0003C4811439962996A01409962996B0A43B5
:1028C0009A638E2252008FE7374B98420ED18022B6
:1028D0002F4B1203996A354811439962996A014056
:1028E0009962996B0A439A63314A7DE7314B98426A
:1028F0000ED18022264B5203996A2F4811439962C8
:10290000996A01409962996B0A439A632B4A6BE773
:10291000B84200D06BE780221D4BD202996A28484A
:1029200011439962996A01409962996B0A439A63CB
:10293000244A59E7FFF706FC3000FFF725FC8BE738
:102940000220FFF78FFCC023E26C1B011343300011
:10295000E364FFF77FFB002889D105B0F0BD802339
:10296000E26C1B013A4013433000E364FFF772FB53
:10297000002800D080E7F0E7FFF76CFBEDE7C046EA
:10298000C8410008204100080038014000480040CC
:1029900000100240FFBFFFFF04020020FFF3FFFF13
:1029A00000440040FFFFFDFF004C0040FFFFF7FF29
:1029B0000E02000000500040FFFFEFFF0E0300007A
:1029C000FFFFFBFF1D04000013B5002803D0049C8B
:1029D0000094FFF7CFFE13BD10B591300378064A7F
:1029E0009B009858FFF733F92223184022384342BE
:1029F0005841C0B210BDC0460402002010B591304D
:102A00000378064A9B009858FFF721F921231840C4
:102A1000213843425841C0B210BDC04604020020D4
:102A200070B504000E00002802D10120404270BDA4
:102A3000FFF7D2FF051EF8D1210092310B789134B7
:102A40003370237803489B0001221858FEF766FF75
:102A50002800ECE70402002070B504000E000028F6
:102A600020D0FFF7B9FF051E1CD123000833DE6715
:102A70002600002090363056FEF740F821009134B1
:102A8000237809489B00012218589231FEF746FF2F
:102A900000202A0030560121FDF7FAFF00203056B1
:102AA000FEF720F870BDC0460402002070B5041E79
:102AB00021D0030005000020883319609035285686
:102AC000FEF71CF823002200A23398321B881168FD
:102AD0009134C918237808489B0001221858FEF742
:102AE000E1FE0020002228560121FDF7D1FF002041
:102AF0002856FDF7F7FF70BD0402002010B500282E
:102B00000CD003008E3300229B5E013306D191303E
:102B10000378034A9B009858FFF769F810BDC04638
:102B20000402002010B500280CD003008E330022D0
:102B30009B5E013306D191300378034A9B0098587D
:102B4000FFF76DF810BDC04604020020030010B569
:102B50000433DB6F0438984710BD10B50400230020
:102B600084331B6804389847431C0AD02300220092
:102B70009E33943211681B8801222000C918FEF789
:102B800091FE10BD0122036810B5D96904001142FD
:102B900001D01A620BE00222D9691142F9D1042254
:102BA000D9691142F5D10822D9691142F1D1201F0A
:102BB000FFF712FF002805D12100012220008E31ED
:102BC000FEF7ACFE10BD000010B51B20FDF7C0FFE6
:102BD000024B1868FEF764FF10BDC04604020020D7
:102BE00010B51C20FDF7B4FF024B5868FEF758FFE4
:102BF00010BDC046040200200E2010B5FDF7A8FF4E
:102C0000054CA068002801D0FEF74AFFE0680028C4
:102C100001D0FEF745FF10BD0402002010B51D20B5
:102C2000FDF796FF024B1869FEF73AFF10BDC0464C
:102C300004020020010010B501228E31FEF76EFE65
:102C400010BD0000084B02689A420CD18022074B4D
:102C50009205996A06480A439A62996A0140996204
:102C60009A6B02409A637047007400400010024063
:102C7000FFFFFFDF30B50D4D87B029000400FFF7DF
:102C8000F1FB019000280FD029002000FFF714FC71
:102C90000103C90E02394842414101A80901FDF76B
:102CA00079FF01A8FDF767FF07B030BDF43F0008CA
:102CB000F8B5134F05003900FFF7D4FB00F0D4FB43
:102CC000104E8400A359002B0DD139002800FFF7C6
:102CD000C9FB0700A02000F033FE0500390000F01A
:102CE0000BFCA3591D6033591C68002C06D0200032
:102CF00000F0E4FBA021200000F026FEF8BDC04655
:102D00001840000898040020836810B50400002BC8
:102D100002D0032201009847200010BD002310B507
:102D2000012803D001334008DBB2F9E714225343F2
:102D3000044A181D80188168002902D0D21813692E
:102D4000984710BD1802002010B50120FDF752FF72
:102D50000220FDF74FFF10BD10B50420FDF74AFF1C
:102D60000820FDF747FF10BD70B50C241025A8B250
:102D7000013CFDF73FFF6D00002CF8D170BD002332
:102D800070B583608B6804000D00002B05D0022213
:102D90009847EB68E360AB68A360200070BD00005B
:102DA000274B10B505211C00180000221970197559
:102DB00028340131217008301C00C26718003C34EF
:102DC00021708C30013101701800983002601800B9
:102DD000A03001701800AC3002601800B4300170EF
:102DE0001800C03002601800C83001701C001800C4
:102DF0005034D4300260217018001C00DC30643480
:102E00000170217018001C00E830783402602170D5
:102E100018001C00F030FF340170617161761800F9
:102E20009624FC306400DA601A625A639A64DA65A8
:102E30001A670260426182621955C26310BDC046C2
:102E40001802002010B5044C143C201DFFF75CFF55
:102E5000024B9C42F8D110BD5803002018020020FC
:102E60002249234A0B6800B51A4080231B011343F3
:102E70000B6022239FB01093213B139316930133D1
:102E80001A9300231B938023DB021C9380231022C0
:102E9000DB0310A814921D93FDF702FF002803D056
:102EA00095211448FFF734FB0F2301930C3B029349
:102EB0000023012101A8039304930593FEF778F9F9
:102EC000002803D0A1210B48FFF722FB40230693E3
:102ED000802306A8DB040F93FEF762FA002803D0D4
:102EE000A7210448FFF714FB1FB000BD007000408D
:102EF000FFE7FFFF644200080D488546002103E01C
:102F00000C4B5B58435004310B480C4B42189A420F
:102F1000F6D30B4A02E0002313600432094B9A42B5
:102F2000F9D3FFF7F7FA00F02BFD00F0FFFCFEE706
:102F3000005000208C450008000000208800002080
:102F400088000020E4040020FEE70000F7B50E0032
:102F5000332827D8274B4000C45E631C3AD00F2388
:102F600025091D40244F23400193AD00EB59019AE0
:102F7000D340DB070ED520002049FFF7CDF900280C
:102F80001AD02000FFF776FE0123019A93407A5968
:102F90009A437A51052E28D83000FDF799F8172268
:102FA0001C1E202435380B2814D8154B8000C3581C
:102FB000104A5B009C5ED0E720001249FFF7ACF995
:102FC0000028E1D02000FFF773FEDDE7002120009C
:102FD000FFF7B0F9F7BD1021F9E72021F7E703214A
:102FE000F5E70121F3E70921F1E749210648FFF759
:102FF0008FFAEFE704430008B0040020F43F000814
:10300000D4420008184000086C43000802003F2129
:10301000A23213889E3001330B401380138800883E
:10302000C01A4342584140427047FE30C38E408E22
:103030004033181A3F23184070470300FE33DA8EDE
:103040005B8E9A4203D0FC30C26AD05C704701208C
:103050004042FBE737B56B46DD1D29000400FFF752
:10306000DFFC002811D122003F21A0321388013358
:103070000B4021009C3109888B4206D09434118882
:1030800020682D789BB24554138037BDF8B50123D5
:10309000050006000374FE352422AB5E04000F0019
:1030A0009436013309D19C235B00C25C002A04D012
:1030B0000022C2543000FFF721FD3F21AA8E531C8D
:1030C0000B40298F8B42FCD0FC34216B30008F5495
:1030D000AB86FFF793FC002803D130000249FFF7CD
:1030E000E5FC0120F8BDC0460D300008037C002B34
:1030F00004D0FE30828E038F9A42FCD170479142F9
:1031000001D1012149420300FE3399845A84010010
:103110000200FC311132CA6200225130DA860863A3
:103120004A631A8770470000F8B500234360FA230A
:103130009B008360154B0500083303600123FE35B7
:103140005B42AB84124B04000E001700984212D170
:10315000104B1A88AA845B886B84012F02D101234B
:103160005B42AB8420002223EA5E2423E95EFFF762
:10317000C6FF2000F8BD08493000FFF789F907496C
:10318000A8843000FFF784F96884E6E75444000817
:10319000580300200443000820410008C8410008EB
:1031A000030010B5FE3324229B5E040001330DD1D1
:1031B00003685B6998479C235B00E25C002A05D1A9
:1031C00020000132E2549430FFF7ACFC10BD000047
:1031D0000300FC33F0B519643A23FF33C254333B88
:1031E000FF3B1340023B85B0DBB205000024029197
:1031F000042B01D81849CC5C30231340302B1FD14D
:10320000C0260134F6001207D20F53030393E31FC5
:10321000022B1BD8114A9B009C582F00039B94370C
:1032200022000299380000933300FFF7CDFB2800FD
:10323000FFF7B6FF38000A49FFF70EFC05B0F0BDF6
:1032400000269306DFD580260134DBE7C12105483F
:103250004900FFF75DF9E0E74244000848440008F0
:1032600055300008D643000810B50400FFF798FF5A
:103270002200FE32D18E538E994207D0FC34E16A8F
:10328000C85C3F2101330B40538610BD01204042F2
:10329000FBE7000010B5002202490348FFF744FF96
:1032A00010BDC0460044004058030020836810B59C
:1032B0000400002B05D00322010098470023A360DF
:1032C000E360200010BD0121C3680220DA688A4350
:1032D000DA60DA688243DA60DA6800188243DA601A
:1032E000DA6804308243DA60DA6808308243DA60F0
:1032F0001A688A431A6070474B1E032B02D8890054
:10330000081F704701204042FBE70000F7B50500A9
:103310000C00FFF7F1FF0600431C04D14E21364894
:10332000FF31FFF7F5F8671E032F2ED8334BDB5D17
:103330000193013304D1A9212F484900FFF7E8F890
:10334000032F04D958212C48FF31FFF7E1F8053449
:1033500024012C19A368002B07D0019AEB68D243F3
:103360001A61DA6801990A43DA607B00585B013818
:103370000B2811D82B0031000C33FCF7A9FE0E0EE0
:103380000E0E0A0A0E0E3939391201235B420193DF
:10339000D1E71800FEF7A4F9F7BD1800FEF78EF983
:1033A000FAE71800FEF7A0F9032F18D8144BDB57E3
:1033B000013BEA68032B15D812495800405A116A9C
:1033C00001431162A1680029E6D0032B0DD80B49F7
:1033D000C95CCB431361D3680B43D360DCE70123A3
:1033E0005B42E5E701204042E9E701214942F0E77D
:1033F0001800FEF779F9CFE77C440008F044000894
:10340000F4440008E8440008836D10B50400002B64
:103410000AD00222C36852421A61D96803320A43B1
:10342000DA600C30FEF738F920000121FFF76EFF5B
:1034300020000221FFF76AFF20000321FFF766FF4B
:1034400004212000FFF762FF10BDC36801399962B3
:1034500070470121C26810B5D36850308B43D360E8
:10346000FFF724FF10BD000080220300D205904228
:1034700014D00C4A904213D00B4A022093420CD035
:103480000A4A0130934208D0094A0130934204D0DD
:103490000848094A934200D1002070470020F8E70D
:1034A0000120F6E700040040001000400014004036
:1034B00000080140FFFF00000014014070B5040047
:1034C000C068FFF7D1FF050020000C30FFF790F82F
:1034D0000023084AAD00AB5026002500A360A035AC
:1034E0005036B54204D0103D2800FFF70DFCF8E738
:1034F000200070BD98040020F8B5020006000023EB
:1035000090320C368365836683670400F367080096
:1035100093600F00FFF7A8FF1D4B0500984203D1F1
:103520002F211C48FEF7F4FF23001B4AAD0008338F
:10353000AB500023621DE760D3773F32A362E362A2
:1035400023636363A363E3632364137053700322F1
:10355000300025002700A460A264E364FFF70AF8A6
:103560005035A03728001035FFF7A0FEBD42F9D135
:103570000023074A2360636023616361E361803352
:103580003000A2612362FEF76CF82000F8BDC0464F
:10359000FFFF00007C4400089804002030B50500BF
:1035A000002487B01422002101A800F02AFA01A803
:1035B00069460094FDF7D4FEE868FFF7ADF80128EE
:1035C00008D0022816D00E480E49FEF7A1FF2000B1
:1035D00007B030BD049CFDF7A3FEC023DB009C4276
:1035E00006D00BD8084B1C408023DB009C42EFD157
:1035F0004000EDE7059CFDF7A3FEEEE7E023F4E7CE
:103600007C440008FF040000FFFEFFFF70B50500CA
:103610000C00012A09D0022A15D023005A1E93411A
:10362000E41AEB68DC62AC6170BDFFF7B7FF0949D3
:10363000FCF762FD6043EB68010C99620131FCF715
:103640005BFD0400E9E7FFF7A9FF2100FCF754FD4B
:10365000F1E7C04640420F00C36870B59E6A05009E
:103660000C000136012A04D0022A0DD0EB685C62FE
:1036700070BDFFF793FF0749FCF73EFD3100604343
:10368000FCF73AFD0400F1E7FFF788FF21007143E2
:10369000F6E7C04640420F00044B10B518680028FA
:1036A00002D00430FEF726F810BDC0469804002072
:1036B000044B10B55868002802D00430FEF71AF801
:1036C00010BDC04698040020044B10B5986800282F
:1036D00002D00430FEF70EF810BDC046980400205A
:1036E000044B10B5D868002802D00430FEF702F869
:1036F00010BDC04698040020044B10B5186900287E
:1037000002D00430FDF7F6FF10BDC046980400203B
:10371000044B10B55869002802D00430FDF7EAFFC9
:1037200010BDC0469804002070B586B06E460400F7
:1037300002AD2800FFF723FB29000822300000F02B
:1037400057F92B00220003CA03C3230006CE06C389
:10375000049BA268A360059B0492E2682800E360D2
:103760000592FFF7D1FA200006B070BD70B50400D5
:10377000A36D0D005030002B02D0FFF7D5FF70BDB8
:10378000FFF7D2FFAB68002BF9D00222E368524268
:103790001A61D96803320A43DA60F0E7836810B52A
:1037A000002B01D100F0CEFAC368984710BD00008D
:1037B00010B5041E03D107490748FEF7A9FE2000F3
:1037C000FEF7D6FE0068836D002B02D05030FFF765
:1037D000E5FF10BD260400007C44000810B5FFF78B
:1037E000E7FF10BD70B5051E03D111491148FEF762
:1037F0008FFE287E0138072812D8FCF769FC1604D2
:1038000011121111111402242800FEF7B1FE053423
:103810000068240100198368002B01D0FFF7BEFF68
:1038200070BD0324F0E70424EEE70124ECE7C04672
:10383000390400007C44000810B5FFF7D3FF10BD29
:1038400010B5FFF7CFFF10BDF8B505000E0017004B
:103850000024BC4208D02B682800315D1B689847C3
:10386000002801D00134F4E72000F8BD70B5050050
:103870000C00081E07D0FCF723FC2B680200210077
:1038800028005B68984770BD10B50249FFF7EEFF4E
:1038900010BDC046F844000870B50400FFF7E6FF0D
:1038A00005002000FFF7F0FF401970BD10B50400BF
:1038B00000F052F8E06023682000DB689847002899
:1038C00008DA00F049F8E368C01AA3689842F2D316
:1038D0000120404210BDF8B506000D00170000247D
:1038E000BC4207D03000FFF7E1FF002802DB28557B
:1038F0000134F5E72000F8BDF7B506000F001D0004
:103900001C1E01920CD000243000FFF7CFFF0028CE
:1039100006DBB84204D0019B18550134A542F3D10F
:103920002000FEBD10B500F013F810BD10B500E08A
:1039300000BFFCF7DBFCFCF70BFD00F011F8FAE729
:1039400010B500F041F810BD10B500F047F810BDFB
:1039500010B5FEF7DBFC10BD10B5FEF775FC10BD11
:10396000054B10B5002B06D00448FFF75EFB00287E
:1039700001D000E000BF10BD00000000580300208F
:1039800070B500260C4D0D4C641BA410A64209D145
:10399000002600F02BFA0A4D0A4C641BA410A64224
:1039A00005D170BDB300EB5898470136EEE7B30080
:1039B000EB5898470136F2E7644500086445000873
:1039C000644500087C45000810B5034B01001868E9
:1039D00000F06AF810BDC0462400002010B5034B6B
:1039E0000100186800F016F810BDC0462400002041
:1039F000002310B59A4200D110BDCC5CC4540133F1
:103A0000F8E703008218934200D170471970013320
:103A1000F9E7000070B50500002910D00C1F2368DD
:103A2000002B00DAE418280000F0B0F81D4A1368F3
:103A3000002B05D163601460280000F0AFF870BD62
:103A4000A34208D9216860188342F3D118685B68E3
:103A500041182160EEE71A005B68002B01D0A342F9
:103A6000F9D911685018A0420BD1206809185018D4
:103A700011608342E0D118685B684118116053609F
:103A8000DAE7A04202D90C232B60D5E72168601841
:103A9000834203D118685B684118216063605460F9
:103AA000CAE7C046C8040020F8B50323CD1C9D43D7
:103AB000083506000C2D1FD20C25A9421ED8300057
:103AC00000F064F825490A681400002C1AD1244F2C
:103AD0003B68002B04D12100300000F043F838602F
:103AE0002900300000F03EF8431C2BD10C2330009D
:103AF000336000F053F803E0002DDEDA0C2333606E
:103B00000020F8BD23685B1B19D40B2B03D923605D
:103B1000E418256003E06368A2420ED10B60300018
:103B200000F03CF8200007220B30231D9043C21AFE
:103B30009842E6D01B1AA350E3E75360EFE7220058
:103B40006468C2E70323C41C9C43A042E1D0211A4D
:103B5000300000F007F8431CDBD1C7E7C8040020A1
:103B6000CC040020002370B5064D040008002B6033
:103B7000FCF728FF431C03D12B68002B00D02360E7
:103B800070BDC046D40400207047704710B502488D
:103B9000FFF7FAFF10BDC046DC04002010B5024854
:103BA000FFF7F3FF10BDC046DC040020F0B5574618
:103BB0004E464546DE46E0B504000D009246994665
:103BC00083B08B4230D82DD049465046FCF75EFB7F
:103BD000290006002000FCF759FB331A9846203BC9
:103BE0009B4633D45A465346934042461F005346A1
:103BF00093401E00AF423AD8AF4200D178E05B4616
:103C0000A41BBD41002B00DA75E0002200230092C6
:103C1000019301235A469340019301234246934066
:103C2000009328E08242CFD9002200230092019322
:103C30000C9B002B01D01C605D600098019903B0C3
:103C40003CBC90469946A246AB46F0BD4246202376
:103C50009B1A5246DA40414613004A468A401700F2
:103C600042461F43534693401E00AF42C4D9002230
:103C70000023009201934346002BD9D0FB07720822
:103C80001A4346467B080EE0AB4201D1A2420CD853
:103C9000A41A9D41012024196D410021013E2418E0
:103CA0004D41002E06D0AB42EED9013E24196D41A4
:103CB000002EF8D1009801995B4600196941002B4C
:103CC00024DB2B005A464446D3402A00E2401C0025
:103CD0005B461500002B2ADB26009E4033002600A1
:103CE0004746BE403200801A9941009001919FE7FB
:103CF000A342BCD883E74246202300219B1A00221E
:103D0000009101920122DA40019286E74246202387
:103D10009B1A2A0046469A402300F3404446134328
:103D20002A00E2401C005B461500002BD4DA424614
:103D30002F002023260097409B1ADE403B00334390
:103D4000CDE7C04610B500F000F8062010B500F031
:103D50002DF80120FCF754FE70B504000D001F295A
:103D600004D9162303600120404270BD436C002B30
:103D700004D08A009B181A68002A08D1200000F09D
:103D800031F82A000100200000F01AF8EDE70020C9
:103D9000012AEAD0511C03D1162301302360E4E745
:103DA000002428001C6090472000DEE710B5034B7C
:103DB00001001868FFF7D0FF10BDC04624000020A6
:103DC000002370B5064D0400080011002B60FCF7BD
:103DD00019FE431C03D12B68002B00D0236070BD5B
:103DE000D404002010B5FCF715FE10BDF8B5C04690
:103DF000F8BC08BC9E467047F8B5C046F8BC08BC85
:043E00009E46704723
:103E0400476F6F646E69676874206D6F6F6E210011
:103E14004154004552524F523A20696E76616C69A2
:103E2400642070696E206E756D6265720A00000010
:103E340000000000000000002906000849380008BE
:103E4400BD03000891030008F3030008E103000820
:103E5400D7380008F9380008A5050008BD05000892
:103E640004020800101010041010100210101008A2
:103E7400433A5C55736572735C6B6F7364655C4144
:103E84007070446174615C4C6F63616C5C4172641A
:103E940075696E6F31355C7061636B616765735C06
:103EA40053544D33325C68617264776172655C733C
:103EB400746D33325C312E392E305C6C6962726100
:103EC400726965735C537263577261707065725C7A
:103ED4007372635C73746D33325C636C6F636B2EEB
:103EE4006300433A5C55736572735C6B6F7364650E
:103EF4005C417070446174615C4C6F63616C5C41E3
:103F0400726475696E6F31355C7061636B6167658E
:103F1400735C53544D33325C6861726477617265CB
:103F24005C73746D33325C312E392E305C6C696293
:103F34007261726965735C53726357726170706504
:103F4400725C7372635C73746D33325C70696E6D32
:103F540061702E63000000000100000002000000F8
:103F64000400000008000000100000002000000011
:103F7400400000008000000000010000000200007A
:103F840000040000000800000010000000200000F1
:103F9400004000000080000000000000000000005D
:103FA40001020304060708090000000001020304DB
:103FB400030406080C1018203054494D3A20556E5D
:103FC4006B6E6F776E2074696D6572204952516E05
:103FD4000054494D3A20556E6B6E6F776E207469AC
:103FE4006D657220696E7374616E63650000000014
:103FF400040000000074004003800000050000007D
:104004000074004003000100FFFF000000000000F6
:1040140000000000000000000000004012820000C8
:104024000100000000000040120201000200000034
:10403400000000401282010003000000000801405B
:10404400120001000500000000000040128500007D
:104054000600000000040040128200000700000077
:1040640000140140120501000F0000000000004090
:1040740012850000100000000004004012820100BC
:1040840011000000000400401202020013000000AE
:10409400000000401202010014000000000400406F
:1040A40012820000150000000014014012040100F7
:1040B4001A00000000000040128201001B000000F2
:1040C40000000040120202001D0000000008014030
:1040D400128600001E0000000008014012060100C4
:1040E40026000000000400401282000027000000A7
:1040F40000140140120001002800000000040040E8
:104104001282010029000000000400401202020093
:10411400FFFF00000000000000000000010000009C
:10412400004C004012060000030000000044004060
:10413400120400000A0000000038014012040000CC
:104144000D00000000480040120600000F000000AF
:10415400004400401204000014000000005000401D
:104164001206000017000000003801401200000091
:104174001A00000000480040120700001B00000065
:1041840000480040120400002000000000480040E5
:104194001206000025000000004800401202000042
:1041A4002B000000004C004012060000320000000A
:1041B4000050004012060000FFFF00000000000055
:1041C4000000000000000000004C00401206000047
:1041D4000200000000440040120400000900000036
:1041E40000380140120400000E00000000480040A6
:1041F40012060000130000000050004012060000E8
:104204001600000000380140120000001A000000EF
:1042140000480040120400001B0000000048004059
:1042240012070000210000000048004012060000B0
:104234002400000000480040120200002A00000090
:10424400004C0040120600002C000000005000400A
:1042540012020000FFFF0000000000000000000048
:10426400433A5C55736572735C6B6F7364655C4150
:104274007070446174615C4C6F63616C5C41726426
:1042840075696E6F31355C7061636B616765735C12
:1042940053544D33325C68617264776172655C7348
:1042A400746D33325C312E392E305C766172696103
:1042B4006E74735C4E55434C454F5F4C30373352EC
:1042C4005A5C76617269616E742E637070000000CE
:1042D4002E0000002F00000030000000310000001C
:1042E40032000000330000000B0000000C0000004E
:1042F4001C0000001D000000230000002D00000031
:10430400030002000A001300150014001A0008003C
:104314000900270016000700060005001900180010
:104324002A002C00FFFF0D000E000F0017002D00C7
:104334002E002F0050005100220023002B003200D9
:1043440029002800260025000C000B001C001B007F
:10435400120011001F001E001D00240000000100B7
:104364000400100021002000433A5C557365727309
:104374005C6B6F7364655C417070446174615C4C28
:104384006F63616C5C41726475696E6F31355C702A
:1043940061636B616765735C53544D33325C686170
:1043A4007264776172655C73746D33325C312E397B
:1043B4002E305C636F7265735C61726475696E6FD5
:1043C4005C776972696E675F6469676974616C2E92
:1043D4006300433A5C55736572735C6B6F73646519
:1043E4005C417070446174615C4C6F63616C5C41EE
:1043F400726475696E6F31355C7061636B6167659A
:10440400735C53544D33325C6861726477617265D6
:104414005C73746D33325C312E392E305C636F7291
:1044240065735C61726475696E6F5C486172647710
:1044340061726553657269616C2E63707000060069
:104444000700080000000010000000000010000039
:1044540000000000000000008D300008493800080A
:104464002B300008693200083B300008ED300008AA
:10447400D7380008F9380008433A5C5573657273FD
:104484005C6B6F7364655C417070446174615C4C17
:104494006F63616C5C41726475696E6F31355C7019
:1044A40061636B616765735C53544D33325C68615F
:1044B4007264776172655C73746D33325C312E396A
:1044C4002E305C636F7265735C61726475696E6FC4
:1044D4005C486172647761726554696D65722E63BC
:1044E40070700000010010000001001002040810A8
:1044F400020104030D0A0000000000000000000097
:1045040000000000000000000000000000000000A7
:104514000000000000000000000000000000000097
:104524000000000000000000000000000000000087
:104534000000000000000000000000000000000077
:104544000000000000000000000000000000000067
:0845540000000000000000005F
:08455C0050F6FF7F0100000092
:1045640025390008CD0200082D030008A109000820
:08457400A12D0008953200089A
:10457C00A502000841030008B5090008452E0008F3
:10458C00FFFFFFFFE8040020000000500004005073
:10459C0000080050000C005000100050001C00508F
:1045AC000000200028000020000000001C4500082E
:1045BC003C450008FC44000800000000000000001E
:1045CC0000000000000000000000000000000000DF
:1045DC0000000000000000000000000000000000CF
:1045EC0000000000000000000000000000000000BF
:1045FC0000000000000000000000000000000000AF
:08460C000000000000000000A6
:0400000508002EF9C8
:00000001FF
